:020000040000FA
:060000000A128A11122809
:10000800FE00030EFA000408FB000A08FC00831235
:1000180003137F08FD000A168A11542D0A128A114B
:10002800152883136D30FD001430FE002230FF00C8
:100038005E3084000A168A1155240A128A11A030EB
:100048008400F0300A128A11F8270A128A11203027
:1000580084003F300A128A11F8270A128A11830194
:100068000A168A11D22CFF0000308A007F08820706
:100078003C283D280A128A15932B0A128A150C2D42
:100088000A128A11FB2D0A128A11772B0A128A1575
:10009800202E0A128A15252B0A128A15032CFF0016
:1000A80000308A007F08820758280A128A15852C92
:1000B80083120313C300562906303F02031865282C
:1000C800662891284003031D6A286B287B28013085
:1000D800C1003F0A71280310C10DFF3E031D6F28A0
:1000E8004108C20042088316031385046F2940089B
:1000F800031D7F28802891280130C1003F0A8628E7
:100108000310C10DFF3E031D84284108FF3AC200B9
:1001180042088316031385057A286F2908303F02A1
:1001280003189728982891284003031D9C289D2888
:10013800AD280130C1003F0AA3280310C10DFF3EBE
:10014800031DA1284108C200420883160313860430
:100158007A284008031DB128B22891280130C1002F
:100168003F0AB8280310C10DFF3E031DB6284108F9
:10017800FF3AC20042088316031386057A2808301E
:100188003F020318C828C92891284003031DCD2819
:10019800CE28DE280130C1003F0AD4280310C10D43
:1001A800FF3E031DD2284108C200420883160313EC
:1001B80087047A284008031DE228E32891280130A3
:1001C800C1003F0AE9280310C10DFF3E031DE728BF
:1001D8004108FF3AC20042088316031387057A28AC
:1001E80008303F020318F928FA2891284003031D14
:1001F800FE28FF280F290130C1003F0A05290310F6
:10020800C10DFF3E031D03294108C20042088316A1
:10021800031388047A284008031D132914299128F8
:100228000130C1003F0A1A290310C10DFF3E031D0A
:1002380018294108FF3AC2004208831603138805AB
:100248007A2803303F0203182A292B2991284003D2
:10025800031D2F29302940290130C1003F0A3629C2
:100268000310C10DFF3E031D34294108C200420896
:100278008316031389047A284008031D4429452955
:1002880091280130C1003F0A4B290310C10DFF3EE0
:10029800031D49294108FF3AC20042088316031387
:1002A80089057A284308C100C2014208003A0319A7
:1002B8005E2991284108003A03196028013A031978
:1002C8009228033A0319C328013A0319F428073A74
:1002D800031925299128080083120313C300C73086
:1002E800C10041089F054308C10002300310C10D39
:1002F800FF3E031D7A290310410DC20042089F04E6
:10030800F030C1004108831603139F05522A3F08A5
:10031800031D8F29902997290F30C10041088316A2
:1003280003139F049D290E30C1004108831603134F
:100338009F040514762A3F08031DA329A429B02980
:100348004008031DA829A929B0290D30C10041087A
:10035800831603139F04BF293F08031DB429B52939
:10036800BC290530C1004108831603139F04BF2927
:10037800831603131F158514762A3F08031DC52904
:10038800C629CD290330C1004108831603139F04F1
:10039800D029831603139F140515762A8316031391
:1003A8001F158515762A3F08031DDB29DC29E82956
:1003B8004008031DE029E129E8290C30C100410863
:1003C800831603139F04F7293F08031DEC29ED2921
:1003D800F4290330C1004108831603139F04F72949
:1003E800831603139F148516762A3F08031DFD29DB
:1003F800FE290A2A4008031D022A032A0A2A0B306A
:10040800C1004108831603139F041C2A3F08031DDB
:100418000E2A0F2A162A0A30C10041088316031330
:100428009F041C2A0930C1004108831603139F0446
:100438000914762A3F08031D222A232A2C2A400859
:10044800031D272A282A2C2A831603139F15342ACA
:100458003F08031D302A312A342A831603131F1438
:10046800831603138914762A3F08031D3C2A3D2A64
:10047800462A4008031D412A422A462A83160313A6
:100488009F154E2A3F08031D4A2A4B2A4E2A8316D7
:1004980003131F14831603130915762A83120313F3
:1004A8004308C100C2014208003A03195C2A762AAF
:1004B8004108003A03198B29013A03199F29033A85
:1004C8000319C129013A0319D229073A0319D7296F
:1004D800013A0319F929033A03191E2A013A0319A3
:1004E800382A762A080083120313C3005D2B0630CE
:1004F8003F020318802A812AA82A4003031D852A5F
:10050800862A942A0130C1003F0A8C2A0310C10DA3
:10051800FF3E031D8A2A4108C20042088504762B43
:100528004008031D982A992AA82A0130C1003F0AC9
:100538009F2A0310C10DFF3E031D9D2A4108FF3A63
:10054800C20042088505932A762B08303F0203181B
:10055800AE2AAF2AA82A4003031DB32AB42AC22A06
:100568000130C1003F0ABA2A0310C10DFF3E031D26
:10057800B82A4108C20042088604932A4008031D8D
:10058800C62AC72AA82A0130C1003F0ACD2A03106B
:10059800C10DFF3E031DCB2A4108FF3AC2004208A5
:1005A8008605932A08303F020318DB2ADC2AA82A8A
:1005B8004003031DE02AE12AEF2A0130C1003F0A67
:1005C800E72A0310C10DFF3E031DE52A4108C200BA
:1005D80042088704932A4008031DF32AF42AA82A0C
:1005E8000130C1003F0AFA2A0310C10DFF3E031D66
:1005F800F82A4108FF3AC20042088705932A0830C2
:100608003F020318082B092BA82A4003031D0D2BB2
:100618000E2B1C2B0130C1003F0A142B0310C10DF7
:10062800FF3E031D122B4108C20042088804932A8A
:100638004008031D202B212BA82A0130C1003F0AA6
:10064800272B0310C10DFF3E031D252B4108FF3A40
:10065800C20042088805932A03303F020318352B4D
:10066800362BA82A4003031D3A2B3B2B492B01307C
:10067800C1003F0A412B0310C10DFF3E031D3F2B54
:100688004108C20042088904932A4008031D4D2BE3
:100698004E2BA82A0130C1003F0A542B0310C10D6C
:1006A800FF3E031D522B4108FF3AC200420889054C
:1006B800932A4308C100C2014208003A0319652B76
:1006C800A82A4108003A03197B2A013A0319A92AE2
:1006D800033A0319D62A013A0319032B073A0319D7
:1006E800302BA82A080083120313C501C50AC601C6
:1006F800C60AC701C70A01300A128A11B2260A12AD
:100708008A114C2C3A08031D8A2B8B2BB72BC80156
:10071800C80A0A30BF000030C0006B08D800D901F1
:100728005808C1005908C2000A128A15E3210A12A2
:100738008A11831203133F080A168A114A260A12DD
:100748008A1183120313C501C601C60AC701C70A65
:1007580001300A128A11B2260A128A11831203136F
:10076800BA01BA0A612CC801C80A0A30BF000030B1
:10077800C0006B08D800D9015808C1005908C20048
:100788000A128A1561200A128A11831203133F087C
:100798000A168A114A260A128A1183120313C501FE
:1007A800C50AC601C701C70A01300A128A11B22652
:1007B8000A128A1183120313BA01612C0A30360215
:1007C8000318E72BE82B3D2C3A08031DEC2BED2BE7
:1007D800152CC801C80A0A30BF000030C0006C08D8
:1007E800D800D9015808C1005908C2000A128A1550
:1007F800E3210A128A11831203133F080A168A1189
:100808004A260A128A1183120313C501C601C60AB1
:10081800C701C70A01300A128A11B2260A128A11C0
:10082800B22BC801C80A0A30BF000030C0006C08EB
:10083800D800D9015808C1005908C2000A128A15FF
:1008480061200A128A11831203133F080A168A11BB
:100858004A260A128A1183120313C501C50AC60162
:10086800C701C70A01300A128A11B2260A128A1170
:10087800DE2B0A303606031D422C432C442CDE2B7B
:1008880014303606031D492C4A2C612CB601612C04
:10089800831203133B08D800D9015908003A0319F9
:1008A800562C612C5808003A0319612C013A031997
:1008B800862B033A0319E22B612C080083120313D9
:1008C800D0005008CC00CD01CE01CF014F08C200A6
:1008D8004E08C1004D08C0004C08BF000030C600DB
:1008E8000030C5000730C400D030C3000A168A1192
:1008F8001B270A128A11831203134208AD0041080C
:10090800AC004008AB003F08AA002D08031D9A2C34
:100918002C08031D9A2CFF302B02031D972CFF3047
:100928002A02031D972C03189A2C9B2CA82CE8014B
:100938000A128A150E200A128A1103308312031331
:10094800CC004C08D1003A2D2A08CC002B08CD0049
:100958002C08CE002D08CF0001300310CF0CCE0C90
:10096800CD0CCC0CFF3E031DB12C4F08031DCA2C27
:100978004E08031DCA2CFF304D02031DC72CFF3043
:100988004C02031DC72C0318CA2CCB2CD72CE8010A
:10099800E80A01300310AD0CAC0CAB0CAA0CFF3EFE
:1009A800031DCE2C9C2C2A08CC002B08CD002C082B
:1009B800CE002D08CF0002300310CF0CCE0CCD0C8A
:1009C800CC0CFF3E031DE02C4F08031DF92C4E08EC
:1009D800031DF92CFF304D02031DF62CFF304C028D
:1009E800031DF62C0318F92CFA2C082D0230CC0024
:1009F8004C08E80002300310AD0CAC0CAB0CAA0C90
:100A0800FF3E031DFF2C9C2C2A08CC002B08CD0090
:100A18002C08CE002D08CF0003300310CF0CCE0CCD
:100A2800CD0CCC0CFF3E031D112D4F08031D2A2DA4
:100A38004E08031D2A2DFF304D02031D272DFF30C0
:100A48004C02031D272D03182A2D2B2D392D033079
:100A5800CC004C08E80003300310AD0CAC0CAB0C18
:100A6800AA0CFF3E031D302D9C2CD1015108080013
:100A780083120313DC01DD015C08DA000230031085
:100A8800DA0DFF3E031D432D03105A0DA63E8400C8
:100A980083130008031D512D522DEB2D5C08DA003D
:100AA80002300310DA0DFF3E031D552D03105A0DB9
:100AB800A63E84008001800A5C08DA000230031038
:100AC800DA0DFF3E031D632D03105A0DA73E840067
:100AD80000080A128A1137200A128A11023083127A
:100AE8000313DA005C08DB0002300310DB0DFF3E65
:100AF800031D792D03105B0DA63E84005A0883134D
:100B080080005C08DA0002300310DA0DFF3E031D96
:100B1800882D03105A0DA53E84000008031D952D4D
:100B2800962DEB2D5C08DA0002300310DA0DFF3E3B
:100B3800031D992D03105A0DA03E840080015C0806
:100B4800DA0002300310DA0DFF3E031DA62D031054
:100B58005A0DA33E84008001840A80015C08DA00F3
:100B680002300310DA0DFF3E031DB52D03105A0D98
:100B7800A53E840080015C08DA0002300310DA0D1B
:100B8800FF3E031DC22D03105A0DA13E84008001B3
:100B9800840A80010230DA005C08DB0002300310AE
:100BA800DB0DFF3E031DD32D03105B0DA63E840015
:100BB8005A0880005C08DA0002300310DA0DFF3EA4
:100BC800031DE12D03105A0DA73E8400800101305A
:100BD800DC070318DD0A0030DD0700305D020A304B
:100BE80003195C02031CF92DFA2D402D08009C2ED8
:100BF8000A168A1141240A128A110A168A116327D1
:100C08000A128A11831203133F08CA004008CB0056
:100C18000310CB0CCA0C4A08CC004C08D000293071
:100C280050020318182E192E212E5008CA00CB0185
:100C38004A08CE004B08CF00282E5008FF3ECE00B1
:100C4800FF3003180030CF004E08CA004A08D00011
:100C58000A3038020318312E322E4C2E5008CA00A2
:100C6800CB014A08B0070318B10A4B08B10750086E
:100C7800CA003808203E84004A08831380000130E7
:100C8800CA004A08B8076C08CA004A08EB00B12E27
:100C98003708203E84005008CA00CB014B08CD001D
:100CA800831300084A02CC00031CCD0330084C070C
:100CB800B00031080318310A4D07B1005008CA00C6
:100CC8003708203E84004A08800009303706031D93
:100CD8006E2E6F2E712EB701752E0130CA004A088C
:100CE800B7070A30BF000030C0003108C200300822
:100CF800C1000A168A11D5260A128A118312031313
:100D08003F08CA004A08EB00B12E0130CA004A0861
:100D1800B6070130CA004A08B50732303506031D48
:100D2800962E972EB12EB601B501BB01BB0AB12E86
:100D3800831203133B08CA00CB014B08003A03197E
:100D4800A62EB12E4A08003A0319B12E013A03190A
:100D5800FC2D033A0319892EB12E080083120313C0
:100D6800C9004908031DB92EBA2ED42E0230C80076
:100D78004808BF00C00100300A128A115C200A121C
:100D88008A11023083120313C8004808BF00C0014B
:100D9800C00A00300A128A1177220A128A11DF2E3D
:100DA8000230C8004808BF00C00100300A128A118A
:100DB80077220A128A11831203134508031DE52EB0
:100DC800E62E002F0330C8004808BF00C0010030DD
:100DD8000A128A115C200A128A1103308312031343
:100DE800C8004808BF00C001C00A00300A128A11B2
:100DF80077220A128A110B2F0330C8004808BF0057
:100E0800C00100300A128A1177220A128A1183124D
:100E180003134608031D112F122F2C2F0430C8006E
:100E28004808BF00C00100300A128A115C200A126B
:100E38008A11043083120313C8004808BF00C00198
:100E4800C00A00300A128A1177220A128A11372F33
:100E58000430C8004808BF00C00100300A128A11D7
:100E680077220A128A11831203134708031D3D2FA4
:100E78003E2F582F0530C8004808BF00C001003079
:100E88000A128A115C200A128A1105308312031390
:100E9800C8004808BF00C001C00A00300A128A1101
:100EA80077220A128A11632F0530C8004808BF004C
:100EB800C00100300A128A1177220A128A1108002A
:100EC80083120313D40054080A128A1162240A12E6
:100ED8008A1183120313D2005208D5000330550635
:100EE800031D772F782FF72F01300A168A11FE235A
:100EF8000A128A110A168A11F2230A128A110A168C
:100F08008A11F4230A128A1183120313D601D70116
:100F18005608D20002300310D20DFF3E031D8F2F5A
:100F28000310520DA03E8400831380015608D2009E
:100F380002300310D20DFF3E031D9D2F0310520DEA
:100F4800A33E84008001840A80015608D200023042
:100F58000310D20DFF3E031DAC2F0310520DA53E0A
:100F6800840080015608D20002300310D20DFF3EE3
:100F7800031DB92F0310520DA13E84008001840A7D
:100F880080010230D2005608D30002300310D30D7E
:100F9800FF3E031DCA2F0310530DA63E84005208BE
:100FA80080005608D20002300310D20DFF3E031D08
:100FB800D82F0310520DA73E840080010130D607B8
:100FC8000318D70A0030D707003057020A30031930
:100FD8005602031CF02FF12F8C2F0A168A11FA23C0
:100FE8000A128A11F72F080064008001840A040697
:080FF800031900340406F92F6F
:10100200A03083120313CD008630CE0000300A12C6
:101012008A1519210A128A15080083120313690816
:10102200031D142815281A28FD30BF003F0890051B
:101032001B289014690803191F2820284A28FB300E
:10104200BF003F0890056A08BF0001300310BF0DC2
:10105200FF3E031D272803103F0DC00040089004E7
:101062004A28DF30BF003F089005EF30BF003F083D
:1010720090056028DF30BF003F08900510166028F9
:101082009016EF30BF003F089005602890161016AA
:1010920060286808BF00C0014008003A03195228BE
:1010A20060283F08003A03193228013A03193B2805
:1010B200033A03194128013A031947286028080016
:1010C20083120313C501C21F672868286F28C1094C
:1010D200C209C10A0319C20AC501C50AC01F722882
:1010E20073287828BF09C009BF0A0319C00A3F083C
:1010F200400403197D287E28AD28C401C40A8C2827
:1011020001300310BF0DC00DFF3E031D82280130C8
:10111200C3004308C407C01F8F28902881284008B5
:101122004202031D96283F084102031C99289A286F
:10113200A0283F08C1024008031CC203C2020130BA
:101142000310C00CBF0CFF3E031DA1280130C402D6
:10115200031DAC28AD28902845080319B128B228F0
:10116200B728C109C209C10A0319C20A4208C0004C
:101172004108BF00080083120313C0004008031D8A
:10118200C328C428CB28DF30BF003F0883160313CF
:101192009105CE28831603139116831603131108A3
:1011A20083120313BF0003300310BF0CFF3E031D65
:1011B200D5283F18DD28DE28CE281408BF000730C6
:1011C2000310BF0CFF3E031DE1283F1CE928EA285B
:1011D200EE287F30BF003F0894051408BF00063098
:1011E2000310BF0CFF3E031DF1283F1CF928FA280B
:1011F200FE28BF30BF003F0894051308BF003F0818
:10120200C100831603131116831203131408BF00BF
:1012120007300310BF0CFF3E031D0A293F1C122991
:10122200132917297F30BF003F08940541080800A1
:1012320083120313D400F030CF004F0894055403F7
:10124200031D242925292A290B30CF004F08940495
:101252002B299415BF30CF004F0883160313940532
:101262008030831203134D061A3003194E06031DF4
:101272003B293C2943297F30CF004F0883160313B3
:1012820094054629831603139417831203134D08FA
:10129200CF004E08D000D101D20102300310CF0D91
:1012A200D00DD10DD20DFF3E031D4F295208C200B1
:1012B2005108C1005008C0004F08BF000030C600EE
:1012C2007A30C5001230C4000030C3000A128A15F9
:1012D2007B210A128A15831203133F08FF3ED300B3
:1012E20053088316031393008715071683120313FB
:1012F20094160800003083120313CB000030CA009A
:101302000030C9000030C8004208410440043F04D4
:1013120003198C298D29DA29CC01CC0A9D290130A7
:10132200C7000310BF0DC00DC10DC20DC70B92291E
:101332000130C7004708CC07C21FA029A129902964
:101342000130C7000310C80DC90DCA0DCB0DC70B64
:10135200A32942084602031DB82941084502031D7C
:10136200B82940084402031DB8293F084302031C60
:10137200BB29BC29CB293F08C3024008031C400FEC
:10138200C4024108031C410FC5024208031C420F5C
:10139200C602481401300310C20CC10CC00CBF0CB1
:1013A200FF3E031DCC290130CC02031DD929DA29C5
:1013B200A1294B08C2004A08C1004908C0004808D8
:1013C200BF00080083120313C501C01FE929EA29DF
:1013D200F129BF09C009BF0A0319C00AC501C50A1C
:1013E200C21FF429F529FE29C109C209C10A03193C
:1013F200C20A0130C3004308C506C601C7013F083F
:1014020040040319052A062A3D2AC401C40A142AE3
:1014120001300310BF0DC00DFF3E031D0A2A01302B
:10142200C3004308C407C01F172A182A092A01301B
:101432000310C60DC70DFF3E031D192A40084202C4
:10144200031D252A3F084102031C282A292A302A83
:101452003F08C1024008031CC203C2024614013005
:101462000310C00CBF0CFF3E031D312A0130C40221
:10147200031D3C2A3D2A182A45080319412A422AFB
:10148200472AC609C709C60A0319C70A4708C0007E
:101492004608BF00080083120313C100952ABF301B
:1014A200BF003F089F057F30BF003F089F05BF3048
:1014B200BF003F08831603139F05B42ABF30BF0045
:1014C2003F089F057F30BF003F089F058316031327
:1014D2001F17B42A1F177F30BF003F089F05BF3078
:1014E200BF003F08831603139F05B42A1F177F30DE
:1014F200BF003F089F05672ABF30BF003F089F0516
:101502009F17BF30BF003F08831603139F05B42AFD
:10151200BF30BF003F089F059F17672A1F179F17FD
:10152200831603131F17B42A4108BF00C0014008E5
:10153200003A03199D2AB42A3F08003A0319502A97
:10154200013A03196B2A033A03197D2A013A031956
:101552008F2A073A03195F2A013A0319772A033AB5
:101562000319892AB42A83121F1408008312031351
:10157200C200FF30C0004008C3000A2B0508C000AB
:101582003F0AC52A0310C00CFF3E031DC32A4008B0
:101592000139C1004108C300232B0608C0003F0ADD
:1015A200D42A0310C00CFF3E031DD22A4008013981
:1015B200C1004108C300232B0708C0003F0AE32AE9
:1015C2000310C00CFF3E031DE12A40080139C1008F
:1015D2004108C300232B0808C0003F0AF22A031067
:1015E200C00CFF3E031DF02A40080139C10041082A
:1015F200C300232B0908C0003F0A012B0310C00CB3
:10160200FF3E031DFF2A40080139C1004108C30003
:10161200232B4208C000C1014108003A0319122BD2
:10162200232B4008003A0319BF2A013A0319CE2A94
:10163200033A0319DD2A013A0319EC2A073A03197E
:10164200FB2A232B4308080083120313C4013E30F4
:10165200CB004B08C50001300A168A11B1270A12C5
:101662008A157D2B3E08031D372B382B652B19302D
:10167200C7000030C8000A168A118F260A128A157E
:1016820083120313CB004B08CF0023304F02031CFD
:101692004B2B4C2B522B4C304F02031C512B522BF9
:1016A200572B3C30CD000030CE005E2B4F08CB00D4
:1016B200CC014B08CD004C08CE004D08CB004B08A6
:1016C200EC00BB01BB0A922B03303E06031D6A2BC2
:1016D2006B2B712B0A168A11F0230A128A15922B90
:1016E200922B3E08031D762B772B922B0A168A111A
:1016F200C4250A128A15922B831203133B08CB00CE
:10170200CC014C08003A0319872B922B4B08003A64
:101712000319332B013A0319722B033A0319722B63
:10172200922B0800ED2B6B086C020318992B9A2B55
:10173200AD2B0730C5004508BF00C001C00A01300B
:101742000A128A1177220A128A151430831203139D
:10175200C5004508B400022C6C086B020318B22BBA
:10176200B32B022C0A303406031DB82BB92BCC2B19
:101772000730C5004508BF00C001C00A01300A1287
:101782008A1177220A128A15013083120313C500C7
:101792004508B407022C14303406031DD12BD22B7A
:1017A200C52B0730C5004508BF00C00101300A1231
:1017B2008A1177220A128A1583120313B401022CAA
:1017C2000730C5004508BF00C00101300A128A1166
:1017D20077220A128A15DD2B831203133B08C500F8
:1017E200C6014608003A0319F72B022C4508003AB5
:1017F2000319022C013A0319942B033A0319E12B22
:10180200022C080083120313BF01BF0A0A30C00072
:101812000030C1000030C200C300C401C40A11304C
:101822000A128A15B3260A128A150230831203138A
:10183200CE004E08BF000A30C0000030C1000130A7
:10184200C2000030C300C401C40A0E300A128A1555
:10185200B3260A128A15033083120313CE004E08F0
:10186200BF000A30C0000030C1000330C2000030A7
:10187200C300C401C40A0B300A128A15B3260A1225
:101882008A15043083120313CE004E08BF00643061
:10189200C0000030C1000530C2000030C300C401E6
:1018A200C40A08300A128A15B3260A128A150530AC
:1018B20083120313CE004E08BF006430C000003014
:1018C200C1000630C2000030C300C401C40A0530A2
:1018D2000A128A15B3260A128A15063083120313D6
:1018E200CE004E08BF006430C0000030C100073097
:1018F200C2000030C300C401C40A02300A128A15B1
:10190200B3260A128A150800013083120313AE07A8
:101912000318AF0A0030AF072A09F0002B09F100C3
:101922000A168A1131240A128A15F701F80177087A
:10193200F30002300310F30DFF3E031D9B2C031036
:10194200730DA13E840083130008F400840A00088A
:10195200F500831203132F087506031DB22C2E08FF
:101962007406031DB52CB62CFC2C7708F30002304C
:101972000310F30DFF3E031DB92C0310730DA03E9F
:10198200840000080319C62CC72CFC2C7708F3002E
:1019920002300310F30DFF3E031DCA2C0310730D1A
:1019A200A63E840080017708F30002300310F30D95
:1019B200FF3E031DD72C0310730DA33E84000008C5
:1019C200F400840A0008F5007708F60002300310DC
:1019D200F60DFF3E031DE82C0310760DA13E840098
:1019E20074088007840F00080318000AFF007508B6
:1019F2007F07800084030130F7070318F80A0030DC
:101A0200F807003078020A3003197702031C0A2D06
:101A12000B2D982C08007F2D6B086C020318122DD9
:101A2200132D2D2D0230C5004508BF00C001C00A8C
:101A320002300A128A1177220A128A15053083129D
:101A42000313C5004508BF00C00102300A128A1103
:101A520077220A128A15942D6C086B020318322D14
:101A6200332D4D2D0230C5004508BF00C0010230A4
:101A72000A128A1177220A128A1505308312031379
:101A8200C5004508BF00C001C00A02300A128A110F
:101A920077220A128A15942D0230C5004508BF002C
:101AA200C00102300A128A1177220A128A15053001
:101AB20083120313C5004508BF00C00102300A1299
:101AC2008A1177220A128A15942D0230C500450820
:101AD200BF00C00102300A128A1177220A128A1547
:101AE200053083120313C5004508BF00C001023050
:101AF2000A128A1177220A128A15942D831203136D
:101B02003B08C500C6014608003A0319892D942DE9
:101B12004508003A0319942D013A03190D2D033A91
:101B22000319662D942D080083120313C200062E9A
:101B32003F03031D9D2D9E2DA52D3F30C000400863
:101B42008316031385041F2E3F08031DA92DAA2DFA
:101B5200B12DC030C0004008831603138505A42DA3
:101B62001F2E3F03031DB62DB72DBE2DFF30C00023
:101B72004008831603138600A42D3F08031DC22DBF
:101B8200C32DB12D8316031385011F2E3F03031DA1
:101B9200CB2DCC2DD32DFF30C0004008831603136C
:101BA2008700A42D3F08031DD72DD82DB12D8316F4
:101BB200031387011F2E3F03031DE02DE12DE82DA6
:101BC200FF30C0004008831603138800A42D3F088D
:101BD200031DEC2DED2DB12D8316031388011F2E4D
:101BE2003F03031DF52DF62DFA2D831603138915D8
:101BF200A42D3F08031DFE2DFF2DB12DF830C0008E
:101C02004008831603138905A42D4208C000C101B0
:101C12004108003A03190E2EB12D4008003A03196B
:101C2200992D013A0319B22D033A0319C72D013A2E
:101C32000319DC2D073A0319F12DB12D08009D2E51
:101C4200C401C40A3C30C9004908C50001300A1663
:101C52008A11B1270A128A15003A0319312E322E3F
:101C6200472E023083120313C9004908C4003D30D5
:101C7200CA004A08C50001300A168A11B1270A12A1
:101C82008A15003A031D462E472EB22E02308312C9
:101C92000313C9004908BB00B22EC401C40A3C3078
:101CA200C9004908C50001300A168A11B1270A1273
:101CB2008A15003A031D5E2E5F2E792E83120313BE
:101CC200B501B60124306C02031C682E692EB22EB7
:101CD2000530EC021930C4000030C5006C08C900A0
:101CE2004908C6000A168A11AC240A128A15B22EB5
:101CF200023083120313C9004908C4003D30CA00F0
:101D02004A08C50001300A168A11B1270A128A153B
:101D1200003A031D8D2E8E2EB22E83120313B501AF
:101D2200B6014B306C020318972E982EB22E053056
:101D3200C9004908EC076B2E831203133B08C90044
:101D4200CA014A08003A0319A72EB22E4908003ADE
:101D52000319B22E013A0319212E033A03194E2E0A
:101D6200B22E080083120313CB000A168A11F6233F
:101D72000A128A1583120313CC01CD014C08C50047
:101D820002300310C50DFF3E031DC22E0310450D88
:101D9200A03E840083130008031DD02ED12E442FB1
:101DA2003F08C5004C08C60002300310C60DFF3EB6
:101DB200031DD62E0310460DA03E84004508800068
:101DC2004C08C50002300310C50DFF3E031DE42E72
:101DD2000310450DA33E840040088000840A410898
:101DE20080004408C5004C08C60002300310C60D2E
:101DF200FF3E031DF72E0310460DA53E8400450845
:101E020080002E084207C5002F0803182F0A430737
:101E1200C6004508013EC70046080318013E003EC1
:101E2200C8004C08C90002300310C90DFF3E031D53
:101E3200152F0310490DA13E840047088000840A33
:101E4200480880000230C5004C08C600023003106A
:101E5200C60DFF3E031D282F0310460DA63E84002B
:101E6200450880004B08C5004C08C600023003102C
:101E7200C60DFF3E031D382F0310460DA73E8400FA
:101E820045088000532F0130CC070318CD0A0030DB
:101E9200CD0700304D020A3003194C02031C522FA9
:101EA200532FBF2E08000A128A1501200A128A1522
:101EB2000A168A1118240A128A150A168A110F2480
:101EC2000A128A15023083120313D5005508BF0087
:101ED200C00102300A128A115C200A128A1583128A
:101EE2000313BF01BF0AC001C00A02300A128A11DD
:101EF20070210A128A1505300A128A154C220A121A
:101F02008A15053083120313D5005508BF00C0019E
:101F120002300A128A115C200A128A1503308312D7
:101F22000313D5005508BF00C00101300A128A11FF
:101F32005C200A128A15043083120313D500550857
:101F4200BF00C00101300A128A115C200A128A15F0
:101F5200053083120313D5005508BF00C0010130BC
:101F62000A128A115C200A128A15063083120313A0
:101F7200D5005508BF00C00101300A128A115C2049
:101F82000A128A15073083120313D5005508BF00C1
:101F9200C00101300A128A115C200A128A1502302D
:101FA20083120313D5005508BF00C001C00A0130D7
:101FB2000A128A115C200A128A1583120313BF01C6
:101FC200BF0AC001C00A01300A128A115C200A123B
:101FD2008A1583120313BF01C001C00A01300A121D
:101FE2008A115C200A128A150A168A1106240A121C
:0E1FF2008A150A168A11EE230A128A150800B3
:1027DC000B160800630008008B1708000B17080085
:1027EC00831603130C14080083120313101408002F
:1027FC0083120313C0004008BF003F08B300080059
:10280C00BF3083120313BF003F08831603138105E7
:10281C0008007F3083120313BF003F088316031395
:10282C008105080083120313BF0103300A128A15B5
:10283C0095250A168A1108003F3406345B344F3450
:10284C0066346D347D3407347F346F340034003497
:10285C0002343C343C34FE30F20072088312031311
:10286C0090057108F20072088F007008F20072086F
:10287C008E0010140800831203131F08BF000230CF
:10288C000310BF0CFF3E031D462C3F184E2C4F2C43
:10289C00412C1F1508007E088A007F0882000A164A
:1028AC008A1151240A168A118000840A04087D06B4
:1028BC0003190034FF0A0319FE0A552C831603135F
:1028CC00111583160313110883120313BF00023072
:1028DC000310BF0CFF3E031D6E2C3F18762C772C7B
:1028EC00672C1408BF0007300310BF0CFF3E031DFC
:1028FC007A2C3F1C822C832C872C7F30BF003F0806
:10290C0094050800831603139114831603131108FE
:10291C0083120313BF0001300310BF0CFF3E031DD5
:10292C00922C3F189A2C9B2C8B2C1408BF00073030
:10293C000310BF0CFF3E031D9E2C3F1CA62CA72C86
:10294C00AB2C7F30BF003F08940508000A168A1193
:10295C0025250A168A1183120313BF014508013974
:10296C0050380A168A1184250A168A118312031309
:10297C0044080A168A11F8240A168A1183120313C2
:10298C0046080A168A11F8240A168A110A168A11A0
:10299C0064240A168A1108000A128A1554270A168A
:1029AC008A1101300A128A1164270A168A118312BD
:1029BC000313BF01BF0A0130C0000030C10000305A
:1029CC00C200C300C40114300A128A15B3260A16B9
:1029DC008A110A128A113C250A168A11EF2C0A1246
:1029EC008A11122883120313C0004008BF003F084D
:1029FC009300052D7F30BF003F089405FB2C140875
:102A0C00BF0007300310BF0CFF3E031D082D3F18FD
:102A1C00102D112D002D0C08BF0003300310BF0C1E
:102A2C00FF3E031D142D3F1C1C2D1D2D112DF730A9
:102A3C00BF003F088C05831603131108080083168A
:102A4C000313140883120313BF0002300310BF0CCE
:102A5C00FF3E031D2C2D3F18342D352D422D831692
:102A6C00031311081F39031D3C2D3D2D422D11144C
:102A7C001118412D422D3E2D83121408BF00073032
:102A8C000310BF0CFF3E031D462D3F1C4E2D4F2D3A
:102A9C00532D7F30BF003F08940508000C1C572DA8
:102AAC00582D692D330803195C2D5D2D632D3308CA
:102ABC000A128A1153200A168A11FE30F90079087D
:102ACC00831203138C050B08F90001300310F90C69
:102ADC00FF3E031D6C2D791C742D752D792DFD3049
:102AEC00F90079088B057D08FF007C088A007B08BB
:102AFC0084007A0E8300FE0E7E0E090083120313EF
:102B0C00C3004308C00040073F04C10041089300C4
:102B1C009A2D7F30C000400894054308C000400740
:102B2C003F04C100410893001408C0000730031093
:102B3C00C00CFF3E031D9D2D4018A52DA62D8F2DDD
:102B4C000C08C00003300310C00CFF3E031DA92D60
:102B5C00401CB12DB22DA62DF730C00040088C05BD
:102B6C00831603131108831203133F03031DBF2D98
:102B7C00C02DC32D83160313911508008312031364
:102B8C00C501C50AC601C60AC701C70A01300A1227
:102B9C008A11B2260A168A11023083120313CA0054
:102BAC004A08BF00C00102300A128A1177220A16A5
:102BBC008A11053083120313CA004A08BF00C001F2
:102BCC0002300A128A1177220A168A1107308312F0
:102BDC000313CA004A08BF00C00101300A128A114F
:102BEC0077220A168A1183120313BA01B001B101BC
:102BFC00B801B701B601B501B401BB0108008312DD
:102C0C000313C300302E3030C000400885053F0848
:102C1C003F39C00040088504492E86013F08C0009A
:102C2C0040088604492E87013F08C00040088704ED
:102C3C00492E88013F08C00040088804492EF8300E
:102C4C00C000400889053F080739C00040088904C6
:102C5C00492E492E4308C000C1014108003A03190E
:102C6C00382E2F2E4008003A0319092E013A031969
:102C7C00132E033A0319192E013A03191F2E073A82
:102C8C000319252E2F2E080083120313D7004D3065
:102C9C0084005E30C9000408CA000A30CB00490821
:102CAC00840083130008CC00C90A4A0884004C082D
:102CBC008000CA0ACB0B552E57084D3E84000008E5
:102CCC00C9004908BF0003300A168A1105260A16E6
:102CDC008A11831203134808031D752E762E832E3A
:102CEC000730C9004908BF00C001C00A03300A12EE
:102CFC008A1177220A168A118E2E0730C9004908CC
:102D0C00BF00C00103300A128A1177220A168A11F9
:102D1C0008000A168A1125250A168A118312031334
:102D2C00BF014808013950380A168A1184250A1641
:102D3C008A118312031347080A168A11F8240A16FB
:102D4C008A110A168A1188240A168A11831203130F
:102D5C00BF01BF0A50300A168A1184250A168A113F
:102D6C0001300A128A15BC200A168A118312031329
:102D7C00C9004908CA000A168A1164240A168A1165
:102D8C00003083120313C400C500C6010A168A1151
:102D9C00AC240A168A11831203134A080800831202
:102DAC000313C401C5013F0840040319DE2EDF2EB6
:102DBC00162FC601C60AED2E01300310BF0DC00D33
:102DCC00FF3E031DE32E0130C3004308C607C01F9E
:102DDC00F02EF12EE22E01300310C40DC50DFF3E76
:102DEC00031DF22E40084202031DFE2E3F08410235
:102DFC00031C012F022F092F3F08C1024008031C9E
:102E0C00C203C202441401300310C00CBF0CFF3EBD
:102E1C00031D0A2F0130C602031D152F162FF12E8C
:102E2C004508C0004408BF0008000030831203139B
:102E3C00CB000030CA000030C9000030C8003F1C75
:102E4C00282F292F402F4308C807440803110318C3
:102E5C00013E0319322FC907450803110318013E1F
:102E6C000319392FCA07460803110318013E031929
:102E7C00402FCB070130C7000310C30DC40DC50D87
:102E8C00C60DC70B422F01300310C20CC10CC00C75
:102E9C00BF0CFF3E031D4A2F4208410440043F046F
:102EAC00031D592F5A2F252F4B08C2004A08C10069
:102EBC004908C0004808BF000800831203131F080C
:102ECC00C10002300310C10CFF3E031D682F4118D6
:102EDC00702F712F632F831603131F088312031394
:102EEC00C10007300310C10CFF3E031D782F411C9D
:102EFC00802F812F8A2F1E08C900831603131E08EA
:102F0C0083120313C800AC2F831603131E088312FD
:102F1C000313C10006300310C10CFF3E031D912F9B
:102F2C004108C200C3011E08C400C5010310C40D32
:102F3C00C50D0310C40DC50D42084404C60043085A
:102F4C004504C7004608C8004708C9004908C00026
:102F5C004808BF00080083120313C8004408C600C9
:102F6C004608BF0048080A128A15B7220A168A11A9
:102F7C00003A031DC22FC32FE82FD02F0230C600FA
:102F8C004508840046088000FC2F45088400800119
:102F9C00800AFC2F83120313450884008313000856
:102FAC00C600C7014708003A0319DD2FFC2F46085D
:102FBC00013A0319FC2F033A0319CB2F013A0319D9
:102FCC00C42FFC2F831203134508840083130003C2
:102FDC00031DF12FF22FF62F450884008001FC2FE2
:102FEC000330C6004508840046088000450884006C
:042FFC0000080800C1
:02400E00713F00
:00000001FF
